:020000040800F2
:10000000E00600206902000871020008730200087F
:10001000750200087702000879020008000000005D
:100020000000000000000000000000007B0200084B
:100030007D020008000000007F0200088102000825
:10004000830200088302000883020008830200087C
:10005000830200088302000883020008830200086C
:10006000830200088302000883020008830200085C
:10007000830200088302000883020008830200084C
:10008000830200088302000883020008830200083C
:10009000830200088302000883020008830200082C
:1000A000830200088302000883020008830200081C
:1000B000830200088302000883020008830200080C
:1000C00083020008830200088302000883020008FC
:1000D00083020008A12200088302000883020008AE
:1000E00083020008830200088302000800F002F87F
:1000F00000F0AAF814A696E8000CB244B344DA451E
:1001000001D100F0A1F8BAE80F000FA696E8300080
:10011000A5EB040504EB0607AAEB0704A7F101070A
:100120004FEA15154FEA3414A4F10104AC4201D38F
:1001300000F08AF813F0010F18BFFB1A43F0010317
:1001400000F001F8DBE718474C3B00006C3B000077
:10015000103A24BF78C878C1FAD8520724BF30C8F3
:1001600030C144BF04680C60704700007047000055
:100170000023002400250026103A28BF78C1FBD8B0
:10018000520728BF30C148BF0B6070476E2900F08E
:100190005982702900F09B83662903F0E784652962
:1001A00003F0E484672903F0E184612903F0E0842B
:1001B00003681B0A28BF41F08001692900F006820C
:1001C000642900F00382752900F000826F2900F095
:1001D0002983782900F06783E92900F0C382E429A4
:1001E00000F0C082F52900F0BD82EF2900F02683DF
:1001F000F82900F066830368DB0928BF41F080011D
:10020000632901F0ED80732901F0F280E32901F008
:10021000FD80F32901F00281002070471FB59DE8A1
:10022000030000F013F901F0C3F9040000200021DD
:1002300002F052FF401C60600020002102F062FFCB
:10024000E0601FBD10B510BD01F08DF91146FFF73C
:10025000E5FF02F035F901F06FFA03B4FFF7F2FFA2
:1002600003BC01F09FFA0000094880470948004795
:10027000FEE7FEE7FEE7FEE7FEE7FEE7FEE7FEE756
:10028000FEE7FEE704480549054A064B70470000B3
:1002900039220008ED000008E0000020E006002000
:1002A000E0020020E002002070B5A0FB0140B4F1A4
:1002B000805170F1000024BF002070BD204600F086
:1002C000F4F805001CBF214600F008FC284670BD6C
:1002D00070B50446051F00F099F80068002C14BFA3
:1002E000446870BD002C18BFAC423CBF2046646817
:1002F000F8D301680A18AA4218BF456003D12A68DA
:1003000005461144016028684119A1421CBF6C6078
:1003100070BD6168696021680844286070BD000094
:100320000FB41CB5084B06AA7B446946009005989B
:1003300000F0A1F904460020694600F0AFF920461C
:100340001CBC5DF814FB00007103000070B506468C
:1003500000F060F80468054630460A22002100F0EB
:1003600085FB2C6070BD40EA0103024630B59B0757
:1003700010D14FF0013400E008C208C91D1B9D4395
:1003800015EAC41FF8D013F0FF0102F8011B0DD0CD
:100390001B0AF8E711F8013B002B02F8013B05D0DE
:1003A00011F8013B002B02F8013BF3D130BD10B531
:1003B000431C02E010F8011B71B18107FAD14FF024
:1003C000013202C88C1A8C4314EAC211F9D0C01A47
:1003D0000A0603D0C01E10BDC01A10BD0A0401D009
:1003E000801E10BD0902FCD0401E10BD421E12F836
:1003F000013F002BFBD111F8013B002B02F8013B20
:10040000F9D1704770477047704700000048704747
:100410001800002000487047100000207047704707
:100420007047704738B504460A4600206946AFF366
:100430000080002808BF38BD02460099204600F021
:1004400081FB012038BD012001F05FB8F8B5AFF3A2
:100450000080054600200C460C2000BF0646A81967
:10046000A0420DD9324669460020AFF30080070054
:1004700008BF01F04AF80098A04218BF0546C41909
:10048000FFF7C4FF05600746F01D20F0070046197E
:10049000284600F051FBB44208BFF8BDA21B31460C
:1004A0003868BDE8F84000F04DBB70B50646FFF770
:1004B000ADFF056806F10B0020F00704B4429CBFB5
:1004C000002070BD2B466A68BAB11068A04210D3F4
:1004D00004F1080188423CBF5068586007D3516856
:1004E000101941601168091B016058601460101DEB
:1004F00070BD13465268002AE7D121462846FFF70F
:1005000091FF0028DED170BD70B504468569006892
:10051000C10601D5302600E02026C00707D070BDF7
:10052000D4E9012130469047206A401C20626D1EAC
:10053000F6D570BD70B5044685690078C00707D14F
:1005400070BDD4E9012120209047206A401C206220
:100550006D1EF6D570BD09684A0501D540B27047D9
:10056000C905FCD500B2704709684A0501D5C0B27B
:100570007047C905FCD580B2704770B50C4605467A
:10058000012A05D02878800600D5EA69002302E018
:10059000012305E05B1C934202D2E05C0028F9D104
:1005A000A869E618C01AA861286A18442862284673
:1005B000FFF7AAFF04E0D5E9012114F8010B9047E9
:1005C000B442F8D32846FFF7B5FF70BD2DE9F041DE
:1005D0000646002410687529314616A510D0FFF78D
:1005E000BAFF002802DA404213A507E031688A0703
:1005F00001D512A502E0490704D511A5012401E0A7
:10060000FFF7B2FF00210A2206F1240709E0B0FB40
:10061000F2FCB0FBF2F302FB1C00303078541846B9
:10062000491C0028F3D123462A463046BDE8F04154
:1006300000F0E7BA000000002D0000002B000000D1
:100640002000000011680268006A530501D5087097
:100650000AE0D30501D5088006E0130603D5C217CA
:10066000C1E9000200E008600120704701694A1CEE
:1006700002610878704700B58FB0CDE901310021E3
:10068000059105497944CDE903101146684600F00B
:1006900029F90FB000BD0000E5FFFFFF0A6802F86E
:1006A000010B0A60704700002DE9FF5F15468A467E
:1006B0000446DFF8AC80F8440027D8E900103E4635
:1006C000CDE9001010E03AF816106A4602A800F0D2
:1006D000F8FE411C07D02178890603D5E269391854
:1006E00091420DD80744761C2078800602D5E06937
:1006F000B84205DDAE42E6DB3AF816000028E2D14A
:10070000A069C01BA0612046FFF7FEFED8E90010DB
:10071000CDE90010002017E03AF818106A4602A848
:1007200000F0CFFEB0F1FF3F81460BD000250DF168
:10073000080B05E0D4E901211BF8050090476D1C6A
:100740004D45F7D308F10100B0428046E4DB206A52
:10075000384420622046FFF7EDFEBDE8FF9F000011
:10076000BA3400002DE9F0418046D21D22F0070284
:100770000025D2E90002F52915A614D0011E72F158
:10078000000106DA0023D0EB030063EB020211A69E
:1007900008E0D8F800108B0701D50FA602E0490742
:1007A00001D50EA601251146002408F1240704E016
:1007B00000F0E2F930323A55641C50EA0102F7D1F8
:1007C0002B46324621464046BDE8F04100F019BABA
:1007D000000000002D0000002B00000020000000A1
:1007E00030B4002100F1240408E002F00705D2082B
:1007F000303542EA4372DB086554491C52EA03056E
:10080000F3D10468002310A2250708D504F02004C2
:100810000C4304D0C46901230CA2641EC46130BC23
:1008200000F0EFB910B5044621461068FFF79CFEB2
:1008300002462046BDE810400023D1E7D21D22F039
:100840000701D1E90023CBE70000000030000000E1
:10085000F0B40D460188090502D5214C7C4402E024
:100860001F4C7C440E34002100F1240608E002F005
:100870000F071209E75D42EA03721B097754491C0E
:1008800052EA0307F3D102780023120704D5702D32
:1008900006D009B1022311342246F0BC00F0B1B9F0
:1008A00001231034F8E770B504460D462146106860
:1008B000FFF75AFE024629462046BDE87040002355
:1008C000C6E7D21D22F00703D3E90023C0E703687F
:1008D000126843F0200303600823C3610023B7E7D5
:1008E0001C3300002DE9F05F894604464FF0000AF2
:1008F000DFF874B1FB44C0F820A02046E1688847C7
:10090000002874D0252806D0D4E901219047206A18
:10091000401C2062F1E700265F462046E1688847D8
:100920002028054607DB312D05D2781910F8200C58
:1009300008B10643F1E7B00701D526F00406C4F874
:100940001CA00027C4F818A02A2D09D0284602F0C0
:10095000BBFB38B304EB8708303DC8F8185019E0EA
:1009600059F8041B204604EB87029161E16888472F
:10097000012F054618D1E069002820DA26F020066C
:100980001DE0D8F8180000EB800005EB400030387F
:10099000C8F818002046E1688847054602F094FB35
:1009A0000028EED1012F0AD02E2D08D12046E16873
:1009B00088477F1C0546022F46F02006C4DBA0694D
:1009C000002803DA404246F00106A061F00701D09A
:1009D00026F010066C2D0BD0682D09D04C2D39D087
:1009E0006A2D35D0742D35D07A2D33D016E038E00D
:1009F000E1682F4620468847B842054609D16C2F4A
:100A000026D04FF48060E1680643204688470546BB
:100A100004E06C2F1AD04FF4807006430DB3A5F19B
:100A20004100192802D8203546F400664A46294676
:100A3000204626604E46FFF7A9FB80B101280BD067
:100A4000F61D26F0070000F1080956E74020E4E70C
:100A50008020D8E70020D6E706F104094DE72846B4
:100A600052E7206ABDE8F09FAC3200002DE9F04764
:100A700091460F4680460446002614F8015B2DB1CE
:100A800000F052F80068405DC007F6D12B2D02D06F
:100A90002D2D18D0641E4A463946204600F0C2FC6F
:100AA00027B13968A14201D1C7F800804FF0020494
:100AB00071050BD54042002803DDFFF7ABFC046055
:100AC000A007BDE8F08746F48066E4E70028F8DA7E
:100AD000FFF7A0FC04606FF00040F2E74FF0000267
:100AE0000429C0F0128010F0030C00F01785CCF13F
:100AF000040CBCF1020F18BF00F8012BA8BF20F8AE
:100B0000022BA1EB0C0100F009BD5FEAC17C24BF00
:100B100000F8012B00F8012B48BF00F8012B7047AB
:100B2000004870471000002010B500F041FD001D86
:100B300010BD00BFA5250000002101604160704785
:100B40000C207047034640688C46002818BF884236
:100B50003CBF03464068F8D318681844884207D061
:100B60000CF1030020F00700001D411A521A014643
:100B7000081D0A60FFF7ACBB30B5B0F10A0271F195
:100B800000034FEA900E4EEA817EB0EB0E0061EB5F
:100B900091014FEA101E4EEA017E10EB0E0041EB70
:100BA00011114FEA102E4EEA016E10EB0E0041EBD0
:100BB00011214FEA104E4EEA014E10EB0E0041EBB0
:100BC0001141401841F100014FEAD00040EA417064
:100BD0004FEAD1014FEA810444EA907410EB80059A
:100BE00044EB01046D1944EB0404521BA3414FF084
:100BF000000348BF0A3200D530BD401C41F100015E
:100C000030BD2DE9F0470D4699469246044600F165
:100C100024080168880604D5E06921F010012160EC
:100C200000E00120A84201DD471B00E00027A16988
:100C30007A1902EB0900081AA0612078C00602D4D4
:100C40002046FFF761FC002608E0D4E901211AF8EC
:100C500006009047206A401C761C20624E45F4DB5B
:100C60002078C0060AD52046FFF74EFC06E0D4E9FE
:100C7000012130209047206A401C2062381EA7F1D5
:100C80000107F4DC07E0D4E9012118F805009047DA
:100C9000206A401C2062281EA5F10105F3DC2046D5
:100CA000FFF748FC2078000602D50220BDE8F08757
:100CB0000120FBE72DE9FF4F0C461E464FF0FF37A2
:100CC0008BB0D2E90001DDF860800A908A46C1F35A
:100CD0000A5505B93D46002108464FF00000BAF11B
:100CE000000F00F4400005DA00EB80004FF44001F3
:100CF00001EA50004FEA9059B9F1010F00DDB94601
:100D00000A9850EA4A000ED044F61050A5F2FF357A
:100D100045432F14B8F1000F1ED07542291E1EDD69
:100D2000C9F100021CE0B8F1010F4FF0000001D042
:100D3000302103E0F24305E02154401CB042FBDBCC
:100D400030460022002121540B99C1F80880C1E9E6
:100D500000200FB0BDE8F08FBD1B6D1CDEE74A46DA
:100D600000DA694206A800F075FC06AB93E80700BC
:100D700003AB83E8070050460A9901F0C9FD8DE8EE
:100D80000700A0F500501F3800900398002D0ADDE1
:100D900042F21F014A460844002303A90390684613
:100DA00002F032F809E0A0F500504A461F3800234F
:100DB00003A90390684602F03CF88DE807000004A0
:100DC000000C03D04FF0FF30410800E01046B8F1AE
:100DD000000F03D00022009215461EE0751E05D4B8
:100DE000FFF7CAFE303262556D1EF9D5B3460122B7
:100DF000084302D000227F1C04E02078302801D173
:100E000000227F1E002A099784D01DE0112D07DAE9
:100E1000FFF7B2FE303262556D1C50EA0102F5D187
:100E2000084302D00098C8B10EE00021681E05E01A
:100E3000235C625C63542254401E491C8142F7DBF0
:100E4000AB46A81B401E0990002004F80B000B982D
:100E5000099AC0F80880C0E9002B7AE711264FF004
:100E6000000857E72DE9F04F88460446D21D22F0CE
:100E7000070191B0D1E90001CDE90A0102F010F9B2
:100E800002460B98C00F01D02D2007E02068810793
:100E900001D52B2002E0202101EAC000032A09909D
:100EA00001D0072A05DB03464146204600F084FBBB
:100EB0000BE12078800601D5E06900E00620B8F15A
:100EC000650F814606D0B8F1660F18D0B8F1670FEC
:100ED00070D131E00020B9F1110F009001DB112336
:100EE00001E009F101030AAA01A90CA8FFF7E2FE3B
:100EF000DDE90C70002609F10105834647E0012079
:100F00004B4600904FF000470AAA01A90CA8FFF732
:100F1000D1FEDDE90DB00C995D46002610B909F14E
:100F200001000D18B9EB050003D4C0F1FF3609F13B
:100F30000105A5EB09002BE0B9F1010F01DA4FF033
:100F400001090020B9F1110F0090484601DD11237D
:100F500000E003460AAA01A90CA8FFF7ABFEDDE9F1
:100F60000C704D4600268346207800070AD4AB4516
:100F700000DA5D4601A8012D04DD411911F8011CBC
:100F8000302907D04F4502DA17F1040F04DA0120A7
:100F900082460FE06D1EEEE7002F02DCED1B3E44A3
:100FA00003E0781CA84200DD7D1CB81B00F1010A9B
:100FB0004FF000472078000703D4AA4501DB4FF02B
:100FC000FF3A0021B7F1004F0DF143088DF84310AF
:100FD00024D002202B23002F01DA7F422D230A2167
:100FE000021EA0F1010000DC5FB197FBF1FC97FB52
:100FF000F1F201FB1C7C17460CF1300C08F801CD16
:10100000EEE7A8F1010003702188090501D545210B
:1010100000E06521A0F1010800F8011C09980FA962
:10102000A1EB0807FF1D00B10120411901EBEA7097
:10103000A1693844081A401EA0612078C00602D475
:101040002046FFF761FA099828B1D4E901219047B9
:10105000206A401C20622078C00622D52046FFF777
:1010600053FA1EE0002E04DBB34502DD01A8805DCB
:1010700000E03020D4E901219047206A401C206222
:10108000761CAAF101005FEA000A0AD100F090FA8A
:10109000C0680168405CD4E901219047206A401C87
:1010A0002062281EA5F10105DCDC07E0D4E901215E
:1010B00018F8010B9047206A401C2062381EA7F1E7
:1010C0000107F3DC2046FFF735FA032011B041E6B3
:1010D0002DE9F04F04460D46D21D22F0070089B0DD
:1010E000D0E900974846394601F0DAFF0246F80F8A
:1010F00001D02D2307E02068810701D52B2302E0D2
:10110000202101EAC0038DF820300BB1012000E05E
:101110000020032A824601D0072A04DB2946204604
:1011200000F04AFA3FE12078800601D40D2500E066
:10113000E569C7F30A560D2D49DA00214FEA175B1E
:1011400008464FF00000002F00F4400007DA00EBE3
:1011500080004FF4400100EBD07001EA600081157F
:10116000012901DD4FF0FF3100224FEA850CBCF16F
:10117000180F06D31346ACF118004FF08052C2404E
:1011800003E04FF4801323FA0CF30CF10C0CBCF1C8
:10119000200F04D3ACF1200C09FA0CF001E007FA9F
:1011A0000CF000294FF0004801DD18B90FE00ED116
:1011B00040450CD319EB02095F4121B9404502D1EA
:1011C0009F4329EA0209BBEB175F00D0761C2088F9
:1011D000000502D57B48784402E07A487844193803
:1011E00008AA302302F80A30037C0AF10101002E1C
:1011F0000AF1020A53546A4602DC4FF0300101E062
:101200004FF031014FF001088DF8001002D0A6F226
:10121000FF3603E059EA470100D06B4E002D02DC97
:101220002178090704D54FF002082E218DF801100E
:10123000C44600210BE0C7F303433F01C35C491CD4
:101240006D1E02F80830052908F1010801DA002DA9
:10125000F1DC00210CE000EB1973491C1B786D1EBA
:10126000082902F808304FEA091908F1010801DAE3
:10127000002DF0DC21688B0602D516E0A8F10108EC
:10128000E04505DD02EB080313F8013C302BF5D0F7
:10129000B8F1000F09DD02EB080313F8013C2E2B17
:1012A00003D1090701D4A8F10108002D05DD3E2175
:1012B00002F808106D1E08F10108407C002E02F8AB
:1012C000080008F1010804DA2D20764202F808002F
:1012D00002E02B2002F808000A214FF47A708642BF
:1012E00008F101080BDB96FBF0F3303302F808300D
:1012F00096FBF0F308F1010800FB136601E0642E91
:101300000CDB642096FBF0F3303302F8083096FBD8
:10131000F0F308F1010800FB136601E00A2E06DB7A
:1013200096FBF1F0303002F8080008F1010896FB56
:10133000F1F001FB1060303002F80800A16908F1FB
:10134000010808EB050202EB0A00081AA0612078E8
:10135000C00602D42046FFF7D7F8216A08AE01EB99
:101360000A00206204E0D4E9012116F8010B90473D
:10137000BAF1010AF7D22078C00602D52046FFF75D
:10138000C3F86E4609E016F8010B3E280FD0D4E9E9
:1013900001219047206A401C2062B8F10108F2D276
:1013A0002046FFF7C7F809B00320BDE8F08F206A98
:1013B0002844206203E0D4E90121302090476D1ECB
:1013C000EBD3F8E7EE29000002FCFFFF10B54369FC
:1013D00013B1AFF3008001E0FFF7CFF8012010BD9B
:1013E000127800F124010A7000224A700122EDE710
:1013F00011684FF0FF32E9E710B5436913B1AFF35D
:10140000008001E0FFF750F9012010BD128800F1C3
:10141000240182840022C2840122EDE711684FF08A
:10142000FF32E9E72DE9F05F824615468B4600273B
:101430000AF10104B9460078302801D09DB113E0CB
:1014400014F8010B0127782803D0582801D045B1A2
:101450000AE00DB1102D07D1002714F8010B10255B
:1014600002E0082500E00A250026B0460EE005FB54
:10147000080005FB06F101271FFA80F801EB104672
:10148000B6F5803F00D3B94614F8010B294600F0A9
:10149000D3F80028EBDABBF1000F05D00FB1641EC2
:1014A00000E05446CBF80040B9F1000F06D0FEF73B
:1014B000B1FF02210160C81EBDE8F09F48EA064066
:1014C000FAE72DE9F04116460C460546FFF72CFBDE
:1014D000036893F80101012807D0FF2C12D8185D8A
:1014E00080B101202C70BDE8F081D3F807013246AD
:1014F000214603F20713C7182846BC46BDE8F04151
:10150000002360474FF0FF30EDE710B500F022F9FF
:10151000BDE8104000F019B94FF0000200B51346C5
:1015200094469646203922BFA0E80C50A0E80C5003
:10153000B1F12001BFF4F7AF090728BFA0E80C50B4
:1015400048BF0CC05DF804EB890028BF40F8042BAD
:1015500008BF704748BF20F8022B11F0804F18BF1A
:1015600000F8012B70477546FFF7DAFAAE46050022
:101570006946534620F00700854618B020B5FEF7AF
:1015800081FEBDE820404FF000064FF000074FF00D
:1015900000084FF0000BAC46ACE8C009ACE8C0094D
:1015A000ACE8C009ACE8C00921F007018D467047DE
:1015B00000487047300000202DE9F0411F460446E6
:1015C00003260168072A01F4006004DB08B116A5B0
:1015D00005E016A503E008B115A500E015A521F06A
:1015E00010002060A069C01EA0610FB1401EA06164
:1015F0002046FEF789FF4FB1D4E9012138469047D4
:10160000206A401C2062C01C206206E0206AFAE7C3
:10161000D4E9012115F8010B9047761EF8D2204637
:10162000FEF788FFBDE8F0814E414E006E616E000E
:10163000494E4600696E66003A2800D2303820F0E4
:101640002002412A01D3A2F13700884201D34FF092
:10165000FF3070472DE9F047814616468AB035487D
:1016600078440DC88DE80D0032487844801C03ACE6
:101670000DC884E80D0041F69B300844372190FBEB
:10168000F1F290FBF1F5A5F1800501FB12041B3C82
:1016900002D56442012000E00020DFF898A08046D7
:1016A0000027FA44AAF1BE0A0EE0E0070AD032464B
:1016B000684607EB470101230AEB810101F0B9FB02
:1016C0008DE8070064107F1C002CEED1194F7F4479
:1016D000AE3F19E0E80715D007EB04100DF1180A2A
:1016E00090E80E008AE80E00C068F04201D1981917
:1016F00008903246012306A903A801F09AFB03AB28
:1017000083E807006D10641C002DE3D14FF0010346
:1017100032466946B8F1000F03A802D001F074FB0D
:1017200001E001F086FBC9E90001C9F808200AB010
:10173000BDE8F087F425000010B50446AFF3008043
:101740002046BDE81040FEF788BD002801D000F01B
:1017500029B8704710B5012805D0002103A000F07A
:1017600028F8012010BD09A1F8E7000053494752AD
:10177000544D454D3A204F7574206F662068656161
:1017800070206D656D6F7279000000003A20486529
:101790006170206D656D6F727920636F7272757004
:1017A0007465640001491820ABBEFEE72600020004
:1017B000704770B505460C460A2000E06D1C00F02D
:1017C00051F835B128780028F8D102E0641C00F007
:1017D00049F814B120780028F8D1BDE870400A20FB
:1017E00000F040B84FF0013C50F8042B51F8043B96
:1017F0009A4221D1A2EB0C03934313EACC1317D1E5
:1018000050F8042B51F8043B9A4215D1A2EB0C037B
:10181000934313EACC130BD150F8042B51F8043B3B
:101820009A4209D1A2EB0C03934313EACC13DBD009
:101830004FF00000704700BFD01A01BAB1FA81F131
:1018400001F0180122FA01F0CB40DBB2C0B2C01A9D
:10185000C1F120012CFA01F3D11A914311EAC3110D
:10186000E6D1704708B569468DF800000320ABBE8D
:1018700008BD000080B58AB000F08AF910200290FF
:1018800001210691FEF710FD014640F2CC00C2F2A4
:10189000000001900160006843F67841C0F6000145
:1018A000FEF761FD40F2D000C2F20000026843681A
:1018B00043F68E41C0F60001039109A80090FEF79F
:1018C0002FFD009901980068FEF790FD01980068CF
:1018D00043F68141C0F60001FEF788FD0021059125
:1018E000084600F07BF90198006800F0E1F90198E2
:1018F0000068FEF7EDFC02980699FEF7D5FC01465C
:1019000040F2A800C2F2000007900160006843F6B0
:101910007041C0F60001FEF726FD039940F2B000C9
:10192000C2F200000268436808A80490FEF7F8FCC1
:10193000049907980068FEF759FD0798006843F678
:101940007F41C0F60001FEF751FD0599069800F0B1
:1019500045F90798006800F0ABF907980068FEF7B2
:10196000B7FC0AB080BD000082B00190002000905A
:10197000FFE70098019988422DD2FFE74EF214014B
:10198000CEF2000142F2273008604EF21801CEF28A
:101990000001002008604EF21001CEF2000108683C
:1019A00040F001000860FFE74EF21000CEF20000A8
:1019B0000068C003002801D4FFE7F5E74EF21001EC
:1019C000CEF20001086820F001000860FFE70098EF
:1019D00001300090CDE702B07047000041F21801DD
:1019E000C4F20201086840F00800086041F21C01DE
:1019F000C4F20201086840F40010086040F600419B
:101A0000C4F20101086820F07F400860086840F0D7
:101A10003B40086040F60C41C4F20101086840F008
:101A2000C000086045F20041C4F20001088840F49B
:101A30000040088008886FF3DF30088045F20442D8
:101A4000C4F20002108840F02400108045F21C42CD
:101A5000C4F20002B420108045F22042C4F2000219
:101A600025201080088840F00100088070470000A1
:101A700081B08DF803009DF80300400045F210414D
:101A8000C4F200010880FFE745F21440C4F20000F0
:101A900000888007002801D4FFE7F5E745F21440ED
:101AA000C4F20000008845F21840C4F2000000882B
:101AB00001B0704745F20041C4F20001088840F4CB
:101AC00080700880FFE745F21440C4F200000088EF
:101AD000C00708B9FFE7F6E745F21440C4F200007A
:101AE0000088704745F20041C4F20001088840F4C4
:101AF000007008807047000081B08DF80300FFE798
:101B000045F21440C4F2000000880006002801D409
:101B1000FFE7F5E79DF8030045F21041C4F200012C
:101B20000880FFE745F21440C4F200000088400737
:101B3000002801D4FFE7F5E701B0704780B584B015
:101B40008DF80F0002918DF80720FFF7B3FF9DF885
:101B50000F00FFF78DFF00208DF80600FFE79DF8CE
:101B600006009DF8071088420DDAFFE702989DF8FD
:101B70000610405CFFF7C0FFFFE79DF8060001304C
:101B80008DF80600EBE7FFF7ADFF04B080BD000065
:101B900080B5012000F042F80220FFF7E5FE80BD8D
:101BA00080B582B032200190FFF7DEFE332000F0D6
:101BB00035F8019800F032F8282000F02FF80C20BA
:101BC00000F02CF8062000F029F8012000F026F89B
:101BD0000220FFF7C9FE02B080BD000080B582B0D0
:101BE0008DF807008DF806109DF8070038B9FFE75B
:101BF0009DF806008030C0B200F010F80CE09DF8AF
:101C00000700012807D1FFE79DF80600C030C0B2E9
:101C100000F004F8FFE7FFE702B080BD80B582B0B6
:101C20008DF807009DF8070000F0F00004308DF8F3
:101C300003009DF8070000F0F0008DF804009DF807
:101C40000700000104308DF805009DF80700000131
:101C50008DF8060027200DF103010422FFF76EFF27
:101C600002B080BD80B582B08DF807009DF80700F6
:101C700000F0F00005308DF803009DF8070000F03B
:101C8000F00001308DF804009DF8070000010530D8
:101C90008DF805009DF80700000101308DF8060061
:101CA00027200DF103010422FFF748FF02B080BD99
:101CB00080B584B0039000208DF80B00FFE79DF8FD
:101CC0000B0001900398FEF772FB014601988842D1
:101CD0000DD2FFE703989DF80B10405CFFF7C2FFA1
:101CE000FFE79DF80B0001308DF80B00E7E704B02B
:101CF00080BD000080B592B0119110900F930E92AC
:101D0000109811990E9A0F9B01F018FE0A4640F2A6
:101D10009801C2F200014A60086008684A6840F20F
:101D2000C003C2F200035A601860086849681A6864
:101D30005B6801F0FDF9002208924FF0804301F04A
:101D4000ABFA02460B4640F2A001C2F20001099133
:101D50000868496801F0ECF9089A0B4609994B604C
:101D60000860086849680023C4F2690301F0F0FEC6
:101D700058B9FFE740F2A001C2F200010020C4F20E
:101D80006900486000200860FFE740F2A001C2F24D
:101D900000010868496800231A4601F0D2FE40B9E4
:101DA000FFE740F2A001C2F2000100204860086095
:101DB000FFE740F29801C2F200010191086849680A
:101DC00040F2C003C2F200031A685B6801F0B6FD7E
:101DD000002207924FF0804301F05EFA079A034613
:101DE000019802930B4602990D930C91016803919F
:101DF0004068049040F2A001C2F2000108684968FE
:101E00000023C3F6E07301F09BFC079A0346039896
:101E100005930B46049906930023C4F2440301F092
:101E20008FFC059A069B01F083F9079A0B910A90A3
:101E30000A980B990023C4F2590301F089FE38B9BE
:101E4000FFE70020C4F259000B9000200A90FFE742
:101E50000A980B9900231A4601F073FE20B9FFE798
:101E600000200B900A90FFE70A980B99002200923D
:101E70000023C4F2590301F00FFA009A48F6000358
:101E8000C4F2B30301F05CFC01F09CFB014640F29C
:101E90009000C2F200000180008800F0FFFC12B048
:101EA00080BD000041F21801C4F20201086840F050
:101EB0001400086040F60001C4F20101086820F037
:101EC0000F000860086840F00700086040F60C0248
:101ED000C4F20102106840F001001060086820F4AC
:101EE0007F600860086840F44C70086041F20401AB
:101EF000C4F20101086800F470000860086840F44A
:101F0000401008607047000081B000208DF802008A
:101F10008DF80300FFE79DF8030007285ADCFFE770
:101F2000FFE740F60800C4F201000068C00708B9E6
:101F3000FFE7F6E70020ADF800004EF21402CEF203
:101F40000002082111604EF21801CEF20001086073
:101F50004EF21001CEF20001086840F00100086066
:101F6000FFE740F60800C4F201000068C007C0B1F6
:101F7000FFE74EF21000CEF200000068C003002818
:101F80000ED5FFE7BDF800000130ADF800004EF2BD
:101F90001001CEF20001086820F480300860FFE7ED
:101FA000DFE7BDF8000033280DDBFFE79DF80300F5
:101FB000C0F10701012000FA01F19DF80200084379
:101FC0008DF80200FFE7FFE79DF8030001308DF870
:101FD0000300A0E79DF8020001B0704780B582B011
:101FE00040F60C01C4F201010191086820F00100E3
:101FF00008601420FFF7B8FC0199086840F0010060
:102000000860FFE740F60800C4F201000068C0075E
:1020100008B1FFE7F6E7FFE740F60800C4F2010069
:102020000068C00708B9FFE7F6E7FFE740F60800D9
:10203000C4F201000068C00708B1FFE7F6E702B08C
:1020400080BD000080B500F001F880BD84B00020A4
:102050000390029041F20001C4F20201086840F4CA
:1020600080300860FFE741F20000C4F2020000681F
:1020700000F400300290039801300390FFE70299CA
:102080000020019039B9FFE70398B0F5A06018BFB0
:1020900001200190FFE70198C0070028E3D1FFE786
:1020A00041F20000C4F2020000688003002803D55A
:1020B000FFE70120029002E000200290FFE7029873
:1020C000012851D1FFE742F20001C4F20201086881
:1020D00040F010000860086820F0070008600868F9
:1020E00040F00200086041F20401C4F202010091D4
:1020F0000868086008680860086840F48060086044
:10210000086820F47C100860086840F4E810086053
:1021100041F20001C4F20201086840F080700860DA
:10212000FFE741F20000C4F20200006880010028CD
:1021300001D4FFE7F5E741F20401C4F202010868A7
:1021400020F003000860086840F002000860FFE724
:1021500041F20400C4F20200006800F00C000828FC
:1021600001D0FFE7F4E700E0FFE704B070470000AC
:1021700081B041F20001C4F20201086840F48030ED
:102180000860FFE741F20000C4F20200006880032B
:10219000002801D4FFE7F5E741F20401C4F202018F
:1021A0000091086840F4E0100860086840F40040BE
:1021B0000860086840F480600860086840F4803077
:1021C000086041F20001C4F20201086840F080702A
:1021D0000860FFE741F20000C4F2020000688001DD
:1021E000002801D4FFE7F5E741F20401C4F202013F
:1021F000086840F002000860FFE741F20400C4F202
:10220000020000680007002801D4FFE7F5E741F26B
:102210000001C4F20201086820F001000860FFE735
:1022200041F20000C4F2020000688007002801D5D6
:10223000FFE7F5E701B0704780B541F20002C4F254
:102240000202106840F00100106041F20401C4F283
:10225000020108680023CFF6FF03184008601068E9
:102260004FF6FF73CFF6F66318401060106820F445
:1022700080201060086820F4FE00086041F2080128
:10228000C4F202014FF41F000860FFF7DBFE4EF6B8
:102290000851CEF200014FF00060086080BD0000E0
:1022A00080B582B043F60000C4F2010000888006C9
:1022B000002840F18F80FFE743F60400C4F20100DC
:1022C00000888DF807009DF8070040F2DA01C2F29D
:1022D00000010B7840F2DB02C2F20002D054087811
:1022E000013008709DF80700652840F07280FFE714
:1022F00040F2DB00C2F20000002101710078673873
:10230000014600910D285DD80099DFE801F02B0708
:102310005B5B5B5B435B5B5B5B5B5B1940F2DB00C6
:10232000C2F20000013040F20001C2F2000100F0F0
:102330008DF840F2C801C2F200010020087041E0AF
:1023400040F2DB00C2F20000013040F20801C2F2AC
:10235000000100F07BF840F2C801C2F20001002049
:1023600008702FE040F2DB00C2F20000C07866285F
:1023700009D1FFE740F60C01C4F20101086880F0C2
:1023800002000860FFE740F2C801C2F2000101202C
:10239000087017E040F2DB00C2F20000C078662847
:1023A00009D1FFE740F60C01C4F20101086880F092
:1023B00004000860FFE740F2C801C2F200010120FA
:1023C0000870FFE740F2DA01C2F200010020087055
:1023D000FFE7FFE702B080BD81B08DF803009DF9F3
:1023E000030000280ED4FFE79DF9031001F01F023F
:1023F000012090404A094EF20011CEF2000141F84E
:102400002200FFE701B0704782B08DF8070000910D
:102410009DF9070000280AD4FFE7009800019DF904
:1024200007104EF20042CEF2000288540BE00098F2
:1024300000019DF8071001F00F014EF61452CEF284
:1024400000028854FFE702B07047000080B584B0F6
:10245000039002910398FDF779FF0190019801F034
:10246000E0F80A4602994A60086004B080BD0000A6
:1024700080B586B0059004910599086849680022E6
:1024800000920023C4F22403019301F059F901F0F2
:1024900099F8009A019B039005998868C96801F032
:1024A0004FF901F08FF802900498039A029B43F6CB
:1024B0008441C0F60001FDF733FF06B080BD000087
:1024C00080B58AB000200990FFF752FEFFF7EAFCC2
:1024D000FFF784FAFFF764FBFFF75AFB00F098F967
:1024E00000F040F94FF47A70079000F0D7F90798A0
:1024F000FFF73AFAFFE7FFF771FD00208DF82300A0
:10250000FFE79DF82300042810DCFFE7FFF7FCFC41
:102510009DF8232040F28A01C2F200018854FFE7AF
:102520009DF8230001308DF82300EAE740F28A008D
:10253000C2F20000027840F2B901C2F200010A7052
:10254000427840F2B80CC2F2000C8CF8002082787D
:1025500040F2D903C2F200031A7090F803E040F28F
:10256000D802C2F2000282F800E090F804E040F2E3
:102570008900C2F2000080F800E0007809789CF839
:1025800000C061441B78194412781144884237D145
:10259000FFE740F2D900C2F20000017840F2D80013
:1025A000C2F20000007840EA012001F03AF800226F
:1025B00005920023C4F22403069300F06DFE0A4640
:1025C00040F2D001C2F200014A60086040F2B90056
:1025D000C2F20000017840F2B800C2F200000078B8
:1025E00040EA012001F01DF8059A069B00F054FE18
:1025F0000A4640F2B001C2F200014A600860FFE7FB
:1026000040F2D001C2F2000108684A6840F270014D
:10261000C2F200014A60086040F2B002C2F2000259
:1026200010685268CA608860FFF724F940F2C80059
:10263000C2F20000007800286BD1FFE740F2D00121
:10264000C2F200010868496840F20803C2F20003C0
:102650001A685B6801F06EFAD8B9FFE740F2B00083
:10266000C2F20000016803914068049040F200014A
:10267000C2F200010868496800224FF0804300F070
:1026800057FD024603980B46049901F061FA48B9D8
:10269000FFE740F60C01C4F20101086840F00200B7
:1026A000086008E040F60C01C4F20101086820F05F
:1026B00002000860FFE740F2B000C2F200000168CB
:1026C00001914068029040F20001C2F200010868E6
:1026D000496800224FF0404300F02AFD024601986D
:1026E0000B46029901F02DFA48B9FFE740F60C01BC
:1026F000C4F20101086840F00400086008E040F6F8
:102700000C01C4F20101086820F004000860FFE732
:10271000FFE740F27000C2F2000040F28001C2F216
:1027200000010091FFF7A4FE009800F0C3F840F20A
:102730000801C2F2000140F2D000C2F200000268BB
:10274000436808684968FFF7D5FA41F20C01C4F202
:102750000101086880F4005008604FF47A70FFF7B8
:1027600003F9C8E641F21801C4F20201086840F01A
:102770000400086041F21C01C4F20201086840F044
:102780000200086040F60001C4F20101086820F070
:1027900070600860086840F03060086040F22841CE
:1027A000C4F200014720088040F22C41C4F200012D
:1027B00041F28730088040F21841C4F200010888D5
:1027C00020F0FF000880088840F06000088008883A
:1027D00040F00800088040F20041C4F2000108887F
:1027E00000F001000880088840F00100088040F2F5
:1027F0001441C4F20001088840F00100088040F252
:102800002041C4F20001088840F0010008807047B0
:1028100080B582B041F21801C4F20201086844F2A6
:1028200004021043086040F60401C4F20101086884
:1028300020F47F600860086840F40B60086043F68D
:102840000C01C4F20101088840F400500880088897
:1028500020F48050088043F61002C4F20102108870
:1028600020F44050108043F60802C4F201021088A0
:1028700041F64C5318431080088840F00C00088043
:10288000088840F020000880252001900021FFF7F3
:10289000BBFD0198FFF7A0FD02B080BD81B0ADF88F
:1028A0000200BDF8020040F23441C4F20001088089
:1028B00001B0704782B0019000200090FFE70198BE
:1028C0000099405C652821D0FFE7FFE743F6000050
:1028D000C4F2010000880006002801D4FFE7F5E7F4
:1028E000019800994A1C0092405C43F60401C4F22E
:1028F00001010880FFE743F60000C4F201000088F0
:102900004006002801D4FFE7F5E7D8E702B070479A
:102910005FEA400C08BF91F0000F4FEA8C234FEAAA
:10292000C12243EA51514FEA1C5018BF00F5F04054
:102930004FEA300018BF41F000415FEA6C5C00F0E4
:102940002980BCF1FF3F08BF40F080407047130C66
:1029500006BF12044FF0100C4FF0000C130E04BF12
:1029600012020CF1080C130F04BF12010CF1040C3D
:10297000930F04BF92000CF1020CD30F04BF52005E
:102980000CF1010C11464FF00002A0F11F00A0EB6A
:102990000C00704711F0004F08BF704731F0004144
:1029A0003FF4D5AF0B0C06BF09044FF0100C4FF0ED
:1029B000000C0B0E04BF09020CF1080C0B0F04BF36
:1029C00009010CF1040C8B0F04BF89000CF1020CFF
:1029D000CB0F04BF49000CF1010CCCF1200322FA0B
:1029E00003F341EA030102FA0CF2A0EB0C0000F140
:1029F0000100704723F07F4720F07F4C80EA0300FE
:102A000000F00040ACEB070303F57C5303F1FF0338
:102A10002DE9804909B44FEA144324EA03484FEAF8
:102A2000154B25EA0B4E0FF2042606EB13273E78D2
:102A300003FB0667C7F5000707FB06F64FEAD64615
:102A400006F102064FEA543707FB066CCCF1005C36
:102A50004FEA1C472CEA074C0CFB06F507FB06F473
:102A600004EB15464FEA961649085FEA320234BF76
:102A700000204FF000404FEAD13706FB07FC4FEA39
:102A80001C4C0CFB0BF7D21B03FB0CF761EB070193
:102A90000CFB0EF7B0EB074072EB17420CFB08F78C
:102AA00034BFA2EB0742B2EB074261EB17414FEA9A
:102AB0000C444FEA910706FB07FC4FEA1C4C0CFB49
:102AC0000BF7B0EBC74072EB573203FB0CF734BF88
:102AD000A2EBC742B2EBC74261EB57310CFB0EF7DA
:102AE000B0EBC70072EB57720CFB08F734BFA2EBD8
:102AF000C702B2EBC70261EB57714FEA816141EA4D
:102B000092114FEA826242EA90124FEA806004EB2F
:102B1000CC04039F4FEAD13706FB07FC4FEA1C4C5D
:102B20000CFB0BF7D21B03FB0CF761EB07010CFB53
:102B30000EF7B0EB074072EB17420CFB08F734BFFF
:102B4000A2EB0742B2EB074261EB17414FEA8C550B
:102B500004EB9C244FEA910706FB07FC4FEA1C4C50
:102B60000CFB0BF7B0EBC74072EB573203FB0CF7D3
:102B700034BFA2EBC742B2EBC74261EB57310CFB4B
:102B80000EF7B0EBC70072EB57720CFB08F734BFBF
:102B9000A2EBC702B2EBC70261EB57714FEA81614A
:102BA00041EA92114FEA826242EA90124FEA806053
:102BB00015EB4C2544F100044FEAD13706FB07FC26
:102BC0004FEA1C4C0CFB0BF7D21B03FB0CF761EB21
:102BD00007010CFB0EF7B0EB074072EB17420CFB42
:102BE00008F734BFA2EB0742B2EB074261EB174193
:102BF0004FEA813141EA92414FEA823242EA904201
:102C00004FEA80304FEA0C7615EB1C1544F10004B6
:102C100048EA03434EEA0B484FF0000EB2EB080CB3
:102C200071EB030724BF624639464EEB0E0E4FF0A0
:102C3000000B0018524149414BEB0B0BB2EB080C57
:102C400071EB03077BF1000B24BF624639464EEB64
:102C50000E0E4FF0000B0018524149414BEB0B0B8D
:102C6000B2EB080C71EB03077BF1000B24BF62464B
:102C700039464EEB0E0E51EA020718BF46F0010628
:102C800016EB0E7655F1000254F1000103D5BDE8B4
:102C90008901BDE80088BDE88901BDE80048B61992
:102CA000524141EB0101A3F10103704780807F7E17
:102CB0007D7C7B7A797877767675747372717170B2
:102CC0006F6E6E6D6C6C6B6A6A6968686766666564
:102CD0006464636362616160605F5F5E5E5D5D5CF2
:102CE0005C5B5B5A5A595958585757565655555563
:102CF0005454535352525251515050504F4F4F4EC3
:102D00004E4D4D4D4C4C4C4B4B4B4A4A4A49494910
:102D10004848484747474746464645454544444452
:102D20004443434343424242424141419C46002B7B
:102D300030D477002BD04FEA37071CB503B44FF0DF
:102D400010004FF01001BAF1000F06D0BCF1000FD7
:102D5000DCBF40F0080040F008014FF000000FBC5D
:102D6000BDE810400BF1010BBBF1010F08BF5FEA9A
:102D7000170722BF12F1010211F101014FF00041CA
:102D800043F1000300F0004043EA00007047F9D32C
:102D90005708D0E746EA06464FEA164613F1400FB9
:102DA0001FDD13F1200FDFBF16430A460021203339
:102DB0005B42BED0C3F1200746EA06464FEA1646FC
:102DC00002FA07F746EA070622FA03F2C3F12007E0
:102DD00001FA07F742EA070221FA03F14FF0000374
:102DE000A7E746EA020646EA06464FEA164646EADC
:102DF0000106BCBF46EA0646360C4FF000034FF012
:102E000000024FF0000194E72DE9804C70B49A461F
:102E1000934691E8380007C831EA400C48BF34EACD
:102E2000430C03D5FFF7E6FDFFF780FFF0BCBDE8DC
:102E3000008C2DE9804C70B49A46934691E8380096
:102E400007C810F0804F08BF13F0804F03D100F087
:102E500005F8FFF76BFFF0BCBDE8008C20F07F4762
:102E600023F07F4C80EA030000F0004007EB0C03E6
:102E7000A3F57C53A3F1FE0392F0000F00F0B380A2
:102E800095F0000F00F077802DE901494FEA1140DD
:102E900021EA00484FEA144624EA064700FB06FCF4
:102EA00008FB06F607FB08F818EB06484CEB164C37
:102EB00000FB07F718EB07484CEB17404FEA124BA3
:102EC00022EA0B4E4FEA154625EA06470BFB06FCA5
:102ED0000EFB06F607FB0EFE1EEB064E4CEB164CE9
:102EE0000BFB07F71EEB074E4CEB174B18EB0B08D1
:102EF00040F1000018EB0E0B58EB000840F1000009
:102F00008F1A4FF000014FF000063CBFC943661B0B
:102F100014BFB5EB040C00213CBFC943F61B4FEABC
:102F2000174427EA04454FEA1C472CEA074C04FBE8
:102F3000076205FB07F70CFB05F616EB074642EBAD
:102F4000174204FB0CFC16EB0C4642EB1C421BEB3D
:102F5000060658EB020241414EEA8E0E46EA9E06F4
:102F600001D5BDE80189B619524141EB0101A3F138
:102F70000103BDE801894FEA144524EA05464FEAFA
:102F8000114721EA074C05FB07F406FB07F70CFB8A
:102F900006F111EB074144EB174405FB0CFC11EB68
:102FA0000C4144EB1C444FEA124722EA074C05FB54
:102FB00007F206FB07F70CFB06F616EB074642EB9B
:102FC000174205FB0CFC16EB0C4642EB1C456A183D
:102FD00054F1000148BF7047B619524141EB01015D
:102FE000A3F10103704795F0000F37D04FEA11426B
:102FF00021EA02464FEA144724EA074C02FB07F194
:1030000006FB07F70CFB06F414EB074441EB1741F2
:1030100002FB0CFC14EB0C4441EB1C414FEA15473E
:1030200025EA074C02FB07F506FB07F70CFB06F643
:1030300016EB074645EB174502FB0CFC16EB0C465E
:1030400045EB1C42121951F1000148BF7047B619F7
:10305000524141EB0101A3F1010370474FEA1445CE
:1030600024EA05464FEA114721EA074C05FB07F120
:1030700006FB07F70CFB06F212EB074241EB174188
:1030800005FB0CFC12EB0C4251EB1C414FF000060F
:1030900048BF7047921841EB0101A3F1010370474B
:1030A000490050EAC12018BF04204A0D18BF40F063
:1030B000010040F2FF72B2EB515F08BF40F0020026
:1030C000012808BF0520704730380A2801D20120A6
:1030D000704700207047000010B500290AD008781A
:1030E000002807D005487844FEF77CFB002801D073
:1030F000002010BD0248784410BD0000CE0B000037
:10310000C60B000010B500290AD00878002807D0A7
:1031100005487844FEF766FB002801D0002010BD6A
:103120000248784410BD0000B20C0000AA0C000058
:1031300010B591EA030F48BF83F0004300F1068405
:10314000841A71EB030C05D2121943EB0C03001B1C
:1031500061EB0C014FEA1154A4EB135CDFF81CE1A6
:103160001EEA430F18BF9EEA445F00F0748021EA14
:10317000045123EA0E0343F48013DCF1200E32D312
:1031800022FA0CFE10EB0E0023FA0CFE41EB0E01AE
:10319000CCF1200E03FA0EFE10EB0E00CCF1200E47
:1031A00051F10001B1F5801F32D201EB045112FA46
:1031B0000EF2BDE8104058BF7047401C38BF5FEAB0
:1031C000420218BF7047002814BF20F0010041F1EF
:1031D00000014FEA410313F5001F38BF7047A1F10A
:1031E000C04100F0A5BB012A43EB0302ACF1200C67
:1031F000DCF11F0E32BF4FF0000E23FA0CF310EB80
:10320000030041EB0451B4EB115FD0D0A1EB0451AA
:1032100001F58011490801EB04515FEA30000ED33B
:1032200050F1000038BF12FA0EFE08D1BDE8104080
:10323000C9E7401C38BF5FEA4202CAD1C3E7BDE814
:1032400010404FEA410313F5001F38BF7047A1F14A
:10325000C04100F06DBB9EEA445F08D011EA5E0FEA
:10326000BDE8104004BF01F0004100207047BDE8F8
:10327000104070B500F00EFB64FBBE3E0000E0FFA6
:10328000491058BFC1F140415B1058BFC3F14043E2
:103290008B42EFF3008070472DE9C04130B4DFF876
:1032A000A4C23CEA111418BF3CEA131400F0ED80EC
:1032B0001CEA111481EA030544EAD57418BF1CEA1C
:1032C000131500F0C880A4EB050404F17F7404F525
:1032D00000344FF0004545EAC12145EAC32341EAE5
:1032E000505143EA52534FEAC0204FEAC22299425A
:1032F00008BF904200F09D804FEA13650FF244161C
:10330000765D4FEA134506FB05F7C7F1807706FBAC
:1033100007F74FEAD737A7FB03687642A7FB06CE2D
:10332000C8F5803838BFA8F1010807FB08E6A6FBFE
:10333000028C4FF0000EE6FB03CEDCF1000CCEF168
:10334000004E38BFAEF1010EA6FB0C584FF000073F
:10335000E6FB0E87A1FB08C6A0FB07CE16EB0E0608
:103360004FF0000545F10005E1FB076515F1E04E62
:103370007EBFA4F580345FEA46066D4116F18007F2
:1033800045F100054FEA172747EA05674FEA15257B
:103390004FEA0666A6F1DE46B6F1805F20D93846D0
:1033A00005EBC47124F0010C01EB0C11BCF1FE6FB4
:1033B00002D8F0BCBDE8008124425CBF01F5801E4C
:1033C0009EEAC47F02D4F0BCBDE80081244200F133
:1033D0003980A1F1C041F0BCBDE8004100F0A8BABD
:1033E0004FEAD02040EA41504FEAD1214FEAD222A1
:1033F00042EA43524FEAD323A7FB028607FB036648
:1034000005FB02661EEA0E0F58BFA6EB0056B6EB90
:1034100000564FEA520E4EEAC37E18EB0E0E56EBE4
:10342000530EBCD518EB02085E417F1C55F1000518
:10343000B5E74FF480154FF000074FF000064FF04E
:103440000008ACE701F1C04101F000414FF000007D
:10345000F0BCBDE800810CEA131511EA0C1F00D086
:103460000CE013EA0C1F00F026804FF0000081EA08
:10347000030101F00041F0BCBDE80081F0BCBDE8F3
:10348000004181EA030100F053BAF0BCBDE80041FD
:1034900070B500F0FFF900BF097EFC3E00F007B8F0
:1034A0004FF0000081EA030101F00041704781EA1A
:1034B000030100F03DBAF0BCBDE8004122494FF0E5
:1034C00000007047FFFDFBF9F7F5F4F2F0EEEDEBCD
:1034D000E9E8E6E4E3E1E0DEDDDBDAD8D7D5D4D312
:1034E000D1D0CFCDCCCBCAC8C7C6C5C4C2C1C0BF5E
:1034F000BEBDBCBBBAB9B8B7B6B5B4B3B2B1B0AF64
:10350000AEADACABAAA9A8A8A7A6A5A4A3A3A2A147
:10351000A09F9F9E9D9C9C9B9A9999989797969502
:1035200095949393929191908F8F8E8E8D8C8C8B9E
:103530008B8A898988888787868585848483838226
:10354000828181800000FF070000F87F51EA030CB0
:1035500017D41CF5801F58BFBCF5801F00F10680F2
:10356000994218BF704708BF9042704707D711F5BE
:10357000801F58BF13F5801F19D4994270478942A4
:1035800070471CF5801F08D5BCF5801FF7D58B420E
:1035900018BF704708BF824270474FF4001C1CEBF5
:1035A000410F38BF1CEB430F01D28B42704770B5FF
:1035B00000F070F9922449004FF000514FF0805311
:1035C000FFF75EBE4FEA41034FEA5353A3F5806312
:1035D000D3F11E03C8BFD3F1210C0CDD4FF0004224
:1035E00042EAC12242EA505232FA03FC8CEAE17C00
:1035F000ACEBE1707047102BC4BF0020704703F59F
:10360000787CBCF1FF3F04D06FF0004282EA2100D9
:10361000704770B500F03EF9499224800020704751
:10362000F2E710F0004248BF4042B0FA80F310FACF
:1036300003F10AD0C3F11D0303F5806302EB0352CB
:103640004FEA415002EBD12170474FF00000704724
:1036500051EA030C17D41CF5801F58BFBCF5801F1E
:1036600000F10680994218BF704708BF904270472A
:1036700007D711F5801F58BF13F5801F19D4994241
:103680007047894270471CF5801F08D5BCF5801F24
:10369000F7D58B4218BF704708BF824270474FF47E
:1036A000001C1CEB410F38BF1CEB430F01D28B42B7
:1036B000704770B500F0EEF8922449004FF0805149
:1036C0004FF00053FFF7DCBD51EA030C17D41CF593
:1036D000801F58BFBCF5801F00F10680994218BFBB
:1036E000704708BF9042704707D711F5801F58BF39
:1036F00013F5801F19D499427047894270471CF511
:10370000801F08D5BCF5801FF7D58B4218BF7047C6
:1037100008BF824270474FF4001C1CEB410F38BFBA
:103720001CEB430F01D28B42704770B500F0B2F82A
:10373000922449004FF000514FF08053FFF7A0BD95
:1037400070B5DFF848C11CEA111E1EBF1CEA131534
:103750009EEA0C0F95EA0C0F00F06F8081EA0304DB
:103760004EEAD47EAE4421EA4C1123EA4C1341F4D4
:10377000801143F48013AEF17F7EA1FB024CA0FBCD
:103780000365361955EB0C05A1FB034C4CF1000306
:10379000A0FB021C16EB0C06654153F10003094225
:1037A00018BF46F0010613F4007F0BD14FEA033136
:1037B0004FEA053041EA155140EA165034036FF0E4
:1037C00003020AE04FEAC3214FEAC52041EA5551FE
:1037D00040EA5650F4026FF0020202EB2E4201EB77
:1037E000025585EACE710AD05FEA440C18BF24F076
:1037F000004450F1000041F1000120EAD47040F291
:10380000FE7C624500D270BDA84214BF4FF08044D8
:103810004FF04044002E08BF0024BEF1806FA8BFC7
:10382000A1F1C041BDE8704080F2828001F1C04149
:1038300001F000414FF0000070470CEA13159EEABA
:103840000C0F18BF95EA0C0F06D081EA030E4FF05B
:1038500000000EF0004170BD00F01CF88900013E30
:1038600000F007B800F009B84FEA430C5FEA5C5C6F
:1038700008D081EA030100F05BB84FEA410C5FEA2F
:103880005C5CF6D102494FF0000070470000FF0772
:103890000000F87F0EF1020E2EF0030E5EF8046BAE
:1038A000364205D4012A43EB030515F5001F12D853
:1038B000012841EB010C1CF5001F0CD80ED14FEA7A
:1038C000D17C0CEB4C0C0CF1020C15F5001F08BF61
:1038D0004CEBD37C04E04FF0080C01E04FEAD37CC2
:1038E0000CEB4C0526FA05F606F00706B6F1040CBB
:1038F00006D20EEB860CBDE870404CF0010C604720
:10390000DFE80CF0090B02024FF00041A1F50021A5
:103910004FF0000070BD19461046012851EB01041C
:1039200018BFD4F5001484BF002001F0004170BD21
:103930000808A0F500114FEA3101704710B591EA6F
:10394000030F48BF83F000433FF5FAAB841A71EBD5
:10395000030C07D28CF0004C121943EB0C03001B34
:1039600061EB0C014FEA1154A4EB135CDFF8A4E106
:103970001EEA430F18BF9EEA445F00F0B48021EABC
:10398000045123EA6E035242C3EB6E0338BF5B1E41
:10399000DCF1200E25D322FA0CFE10EB0E0043FAC8
:1039A0000CFE41EB0E01CCF1200E03FA0EFE10EBE3
:1039B0000E00CCF1200E51F1000129D401EB04518D
:1039C00012FA0EF2BDE8104058BF7047401C1CBFF1
:1039D000B2F1004F704700280CBF491C20F00100D5
:1039E000704712EB020E43EB030218BF4FF0010EBB
:1039F0004EEA4202ACF1200CDCF11E0E56D943FA1D
:103A00000CFE10EB0E00CCF11E0E51F1FF31D5D59E
:103A10000EF1010E12FA0EFE404141EB010101EBE5
:103A2000445C5FEA5C5C10D901EB045110EBDE7082
:103A300038BFBEF1004FBDE8104018BF70470028E6
:103A40000CBF491C20F00100704734D24FEAD42C3F
:103A500024F4006411F500111BD0B1FA81F20B3A85
:103A6000A41AA41ED2F12003914030FA03F31943A3
:103A7000904001EBCC7101EB0451002CBDE81040EB
:103A8000A8BF704701F1C04101F000414FF00000B4
:103A90007047B0FA80F310FA03F102D1BDE810408C
:103AA0007047E41A173C4805C90AE2E701EB0451E4
:103AB000BDE81040704749104FEA300001EB045157
:103AC000BDE8104002E04FF0000170474A0008BF17
:103AD0000042F8D0B2F5001F28BF704701F0004146
:103AE0004FF0000070479EEA445F07D011EA5E0F76
:103AF000BDE8104004BF002100207047BDE8104021
:103B000070B5FFF7C7FE00BF40DFF63E104683F0FA
:103B1000004170470000E0FF10B5FFF717FD0CBF34
:103B20000120002010BD10B5FFF710FD14BF0120CB
:103B3000002010BD10B5FFF78BFD8CBF01200020C9
:103B400010BD10B5FFF784FD2CBF0120002010BD73
:103B500010B5FFF7B9FD94BF0120002010BD10B5CE
:103B6000FFF7B2FD34BF0120002010BDFDF77AB988
:103B7000FDF7AEBA00000000000000003031323323
:103B80003435363738394142434445464030580091
:103B900030313233343536373839616263646566C3
:103BA000403078000400000800000000000000021F
:103BB0000001000010303132333435363738396186
:103BC000626364656678700030313233343536377D
:103BD00038394142434445465850000002400000F5
:103BE000000000A00000000005400000000000C828
:103BF000000000000C4000000000409C000000009D
:103C0000194000000020BCBE00000000344000004D
:103C1000BFC91B8E00000004B5400000504BCFD040
:103C20006607E2CF010000006C4100003E8251AA0D
:103C3000DFEEA73401000000D9420000DCB5A0E2AD
:103C40003A301F97FFFFFFFFB4450000FD25A0C8D5
:103C5000E9A3C14FFFFFFFFFFF3F0000000000800E
:103C600000000000FF3F0000000000800000000096
:103C700048756D69643A200054656D703A200025DE
:103C8000002A430025303464253034646500252E35
:103C900031660000E03D0008000000201000000038
:103CA00050010008F03D000810000020D006000080
:103CB000700100081001000043000000F8FFFFFF42
:103CC000004040404040404040404141414141402F
:103CD00040404040404040404040404040404040E4
:103CE0004005020202020202020202020202020273
:103CF0000220202020202020202020020202020278
:103D000002029090909090901010101010101010CF
:103D100010101010101010101010101002020202DB
:103D2000020288888888888808080808080808081F
:103D3000080808080808080808080808020202021B
:103D40004000000000000000000000000000000033
:103D50000000000000000000000000000000000063
:103D60000000000000000000000000000000000053
:103D70000000000000000000000000000000000043
:103D80000000000000000000000000000000000033
:103D90000000000000000000000000000000000023
:103DA0000000000000000000000000000000000013
:103DB0000000000000000000000000000000000003
:103DC000000000001C00000043000000F8FFFFFF9F
:103DD0000C0000000E0000000F0000002E0000008C
:103DE00000000000000053400000000000003E40C2
:040000050800026984
:00000001FF
